:0300000002008A71
:0C008A00787FE4F6D8FD7581070200A61F
:100059005765206172652053504D540041207375D6
:09006900706572207465616D0080
:0F0003008F907F057E00120012D2827F057E0053
:10001200D3EF9400EE940040147D6E7C00ED1D70D1
:0D002200011CED4C70F7EF1F70E61E80E32F
:01002F0022AE
:08009600C280120003C28222A5
:08009E00D280120003C282228D
:10007200C281C2827F381200967F0C1200967F06E0
:080082001200967F01020096B6
:100030007F83120096E4FBEB90005993FF12009E21
:100040000BBB0BF37FC2120096E4FBEB90006593B1
:08005000FF12009E0BBB0CF334
:010058002285
:0800A60012007212003080FE0E
:00000001FF
